{
  "contractName": "DeBank",
  "abi": [
    {
      "inputs": [
        {
          "internalType": "contract RewardToken",
          "name": "_rwrd",
          "type": "address"
        },
        {
          "internalType": "contract TetherMock",
          "name": "_tether",
          "type": "address"
        }
      ],
      "payable": false,
      "stateMutability": "nonpayable",
      "type": "constructor"
    },
    {
      "constant": true,
      "inputs": [
        {
          "internalType": "address",
          "name": "",
          "type": "address"
        }
      ],
      "name": "hasStaked",
      "outputs": [
        {
          "internalType": "bool",
          "name": "",
          "type": "bool"
        }
      ],
      "payable": false,
      "stateMutability": "view",
      "type": "function"
    },
    {
      "constant": true,
      "inputs": [
        {
          "internalType": "address",
          "name": "",
          "type": "address"
        }
      ],
      "name": "isStaked",
      "outputs": [
        {
          "internalType": "bool",
          "name": "",
          "type": "bool"
        }
      ],
      "payable": false,
      "stateMutability": "view",
      "type": "function"
    },
    {
      "constant": true,
      "inputs": [],
      "name": "name",
      "outputs": [
        {
          "internalType": "string",
          "name": "",
          "type": "string"
        }
      ],
      "payable": false,
      "stateMutability": "view",
      "type": "function"
    },
    {
      "constant": true,
      "inputs": [],
      "name": "owner",
      "outputs": [
        {
          "internalType": "address",
          "name": "",
          "type": "address"
        }
      ],
      "payable": false,
      "stateMutability": "view",
      "type": "function"
    },
    {
      "constant": true,
      "inputs": [],
      "name": "rwrd",
      "outputs": [
        {
          "internalType": "contract RewardToken",
          "name": "",
          "type": "address"
        }
      ],
      "payable": false,
      "stateMutability": "view",
      "type": "function"
    },
    {
      "constant": true,
      "inputs": [
        {
          "internalType": "address",
          "name": "",
          "type": "address"
        }
      ],
      "name": "stakingBalance",
      "outputs": [
        {
          "internalType": "uint256",
          "name": "",
          "type": "uint256"
        }
      ],
      "payable": false,
      "stateMutability": "view",
      "type": "function"
    },
    {
      "constant": true,
      "inputs": [],
      "name": "tether",
      "outputs": [
        {
          "internalType": "contract TetherMock",
          "name": "",
          "type": "address"
        }
      ],
      "payable": false,
      "stateMutability": "view",
      "type": "function"
    },
    {
      "constant": false,
      "inputs": [
        {
          "internalType": "uint256",
          "name": "_amount",
          "type": "uint256"
        }
      ],
      "name": "depositTokens",
      "outputs": [],
      "payable": false,
      "stateMutability": "nonpayable",
      "type": "function"
    },
    {
      "constant": false,
      "inputs": [],
      "name": "issueTokens",
      "outputs": [],
      "payable": false,
      "stateMutability": "nonpayable",
      "type": "function"
    },
    {
      "constant": false,
      "inputs": [],
      "name": "unstakeTokens",
      "outputs": [],
      "payable": false,
      "stateMutability": "nonpayable",
      "type": "function"
    }
  ],
  "bytecode": "0x60806040526040518060400160405280600a81526020017f446542616e6b312e2e2e000000000000000000000000000000000000000000008152506000908051906020019061004f929190610123565b5034801561005c57600080fd5b50604051610e13380380610e138339818101604052604081101561007f57600080fd5b81019080805190602001909291908051906020019092919050505081600360006101000a81548173ffffffffffffffffffffffffffffffffffffffff021916908373ffffffffffffffffffffffffffffffffffffffff16021790555080600260006101000a81548173ffffffffffffffffffffffffffffffffffffffff021916908373ffffffffffffffffffffffffffffffffffffffff16021790555050506101c8565b828054600181600116156101000203166002900490600052602060002090601f016020900481019282601f1061016457805160ff1916838001178555610192565b82800160010185558215610192579182015b82811115610191578251825591602001919060010190610176565b5b50905061019f91906101a3565b5090565b6101c591905b808211156101c15760008160009055506001016101a9565b5090565b90565b610c3c806101d76000396000f3fe608060405234801561001057600080fd5b506004361061009e5760003560e01c8063815e77e211610066578063815e77e21461022e5780638da5cb5b14610278578063a5ce413b146102c2578063c93c8f34146102cc578063dd49756e146103285761009e565b806306fdde03146100a357806345bc78ab146101265780635efc071a1461017e57806360ab5852146101c85780636177fd18146101d2575b600080fd5b6100ab610356565b6040518080602001828103825283818151815260200191508051906020019080838360005b838110156100eb5780820151818401526020810190506100d0565b50505050905090810190601f1680156101185780820380516001836020036101000a031916815260200191505b509250505060405180910390f35b6101686004803603602081101561013c57600080fd5b81019080803573ffffffffffffffffffffffffffffffffffffffff1690602001909291905050506103f4565b6040518082815260200191505060405180910390f35b61018661040c565b604051808273ffffffffffffffffffffffffffffffffffffffff1673ffffffffffffffffffffffffffffffffffffffff16815260200191505060405180910390f35b6101d0610432565b005b610214600480360360208110156101e857600080fd5b81019080803573ffffffffffffffffffffffffffffffffffffffff169060200190929190505050610689565b604051808215151515815260200191505060405180910390f35b6102366106a9565b604051808273ffffffffffffffffffffffffffffffffffffffff1673ffffffffffffffffffffffffffffffffffffffff16815260200191505060405180910390f35b6102806106cf565b604051808273ffffffffffffffffffffffffffffffffffffffff1673ffffffffffffffffffffffffffffffffffffffff16815260200191505060405180910390f35b6102ca6106f5565b005b61030e600480360360208110156102e257600080fd5b81019080803573ffffffffffffffffffffffffffffffffffffffff16906020019092919050505061087a565b604051808215151515815260200191505060405180910390f35b6103546004803603602081101561033e57600080fd5b810190808035906020019092919050505061089a565b005b60008054600181600116156101000203166002900480601f0160208091040260200160405190810160405280929190818152602001828054600181600116156101000203166002900480156103ec5780601f106103c1576101008083540402835291602001916103ec565b820191906000526020600020905b8154815290600101906020018083116103cf57829003601f168201915b505050505081565b60056020528060005260406000206000915090505481565b600260009054906101000a900473ffffffffffffffffffffffffffffffffffffffff1681565b600160009054906101000a900473ffffffffffffffffffffffffffffffffffffffff1673ffffffffffffffffffffffffffffffffffffffff163373ffffffffffffffffffffffffffffffffffffffff16146104f5576040517f08c379a00000000000000000000000000000000000000000000000000000000081526004018080602001828103825260188152602001807f43616c6c6572206d75737420626520746865206f776e6572000000000000000081525060200191505060405180910390fd5b60008090505b6004805490508110156106865760006004828154811061051757fe5b9060005260206000200160009054906101000a900473ffffffffffffffffffffffffffffffffffffffff1690506000600560008373ffffffffffffffffffffffffffffffffffffffff1673ffffffffffffffffffffffffffffffffffffffff168152602001908152602001600020549050600081111561067757600360009054906101000a900473ffffffffffffffffffffffffffffffffffffffff1673ffffffffffffffffffffffffffffffffffffffff1663a9059cbb83836040518363ffffffff1660e01b8152600401808373ffffffffffffffffffffffffffffffffffffffff1673ffffffffffffffffffffffffffffffffffffffff16815260200182815260200192505050602060405180830381600087803b15801561063a57600080fd5b505af115801561064e573d6000803e3d6000fd5b505050506040513d602081101561066457600080fd5b8101908080519060200190929190505050505b505080806001019150506104fb565b50565b60076020528060005260406000206000915054906101000a900460ff1681565b600360009054906101000a900473ffffffffffffffffffffffffffffffffffffffff1681565b600160009054906101000a900473ffffffffffffffffffffffffffffffffffffffff1681565b6000600560003373ffffffffffffffffffffffffffffffffffffffff1673ffffffffffffffffffffffffffffffffffffffff16815260200190815260200160002054905060008111610792576040517f08c379a0000000000000000000000000000000000000000000000000000000008152600401808060200182810382526026815260200180610be26026913960400191505060405180910390fd5b600260009054906101000a900473ffffffffffffffffffffffffffffffffffffffff1673ffffffffffffffffffffffffffffffffffffffff1663a9059cbb33836040518363ffffffff1660e01b8152600401808373ffffffffffffffffffffffffffffffffffffffff1673ffffffffffffffffffffffffffffffffffffffff16815260200182815260200192505050602060405180830381600087803b15801561083b57600080fd5b505af115801561084f573d6000803e3d6000fd5b505050506040513d602081101561086557600080fd5b81019080805190602001909291905050505050565b60066020528060005260406000206000915054906101000a900460ff1681565b60008111610910576040517f08c379a00000000000000000000000000000000000000000000000000000000081526004018080602001828103825260138152602001807f616d6d6f756e742063616e6e6f7420626520300000000000000000000000000081525060200191505060405180910390fd5b600260009054906101000a900473ffffffffffffffffffffffffffffffffffffffff1673ffffffffffffffffffffffffffffffffffffffff166323b872dd3330846040518463ffffffff1660e01b8152600401808473ffffffffffffffffffffffffffffffffffffffff1673ffffffffffffffffffffffffffffffffffffffff1681526020018373ffffffffffffffffffffffffffffffffffffffff1673ffffffffffffffffffffffffffffffffffffffff1681526020018281526020019350505050602060405180830381600087803b1580156109ed57600080fd5b505af1158015610a01573d6000803e3d6000fd5b505050506040513d6020811015610a1757600080fd5b81019080805190602001909291905050505080600560003373ffffffffffffffffffffffffffffffffffffffff1673ffffffffffffffffffffffffffffffffffffffff16815260200190815260200160002060008282540192505081905550600660003373ffffffffffffffffffffffffffffffffffffffff1673ffffffffffffffffffffffffffffffffffffffff16815260200190815260200160002060009054906101000a900460ff16610b2e5760043390806001815401808255809150509060018203906000526020600020016000909192909190916101000a81548173ffffffffffffffffffffffffffffffffffffffff021916908373ffffffffffffffffffffffffffffffffffffffff160217905550505b6001600760003373ffffffffffffffffffffffffffffffffffffffff1673ffffffffffffffffffffffffffffffffffffffff16815260200190815260200160002060006101000a81548160ff0219169083151502179055506001600660003373ffffffffffffffffffffffffffffffffffffffff1673ffffffffffffffffffffffffffffffffffffffff16815260200190815260200160002060006101000a81548160ff0219169083151502179055505056fe5374616b696e672062616c616e6365206d757374206265206d6f7265207468616e207a65726fa265627a7a723158200269fc7f7f37f4f7da8a1e4ce3348ec4a1c647dde675e93d0bf54bdbb05689d964736f6c63430005110032",
  "source": "pragma solidity ^0.5.0;\n\n// imports can be used as in js, the .sol is required\nimport \"./RewardToken.sol\";\nimport \"./TetherMock.sol\";\n\n/**\n * DeBank contract\n */\ncontract DeBank {\n    string public name = \"DeBank1...\";\n    address public owner;\n    TetherMock public tether;\n    RewardToken public rwrd;\n    address payable[] stakers;\n    mapping(address => uint256) public stakingBalance;\n    mapping(address => bool) public hasStaked;\n    mapping(address => bool) public isStaked;\n\n    constructor(RewardToken _rwrd, TetherMock _tether) public {\n        rwrd = _rwrd;\n        tether = _tether;\n        // owner = msg.sender;\n    }\n\n    /**\n     * Staking function\n     */\n    function depositTokens(uint256 _amount) public {\n        // gate - require amount\n        require(_amount > 0, \"ammount cannot be 0\");\n\n        // address(this), returns contract's address\n        // since we trasfer to contract's address it is handled as staking\n        tether.transferFrom(msg.sender, address(this), _amount);\n\n        // update staking balance\n        stakingBalance[msg.sender] += _amount;\n\n        // empty maapping return false\n        if (!hasStaked[msg.sender]) {\n            stakers.push(msg.sender);\n        }\n\n        // update staking flags\n        isStaked[msg.sender] = true;\n        hasStaked[msg.sender] = true;\n    }\n\n    /**\n     * issue staking rewards\n     */\n    function issueTokens() public {\n        require(msg.sender == owner, \"Caller must be the owner\");\n\n        for (uint256 i = 0; i < stakers.length; i++) {\n            // get staker address\n            address payable recipient = stakers[i];\n\n            // get staker balance\n            uint256 balance = stakingBalance[recipient];\n\n            // if the balcne grather the 0\n            if (balance > 0) {\n                // issue to staker's equal amount of their balance\n                // e.g for every staked coin they get one\n                // it can be something like\n                //  balance = balance * 0.1 to give 10% etc\n                rwrd.transfer(recipient, balance);\n            }\n        }\n    }\n\n    /**\n     * unstake tokens\n     */\n    function unstakeTokens() public {\n        // get sender's staking balance\n        uint256 balance = stakingBalance[msg.sender];\n\n        // gate - min staking balance\n        require(balance > 0, \"Staking balance must be more than zero\");\n\n        // transdsfer the balance back to the sender\n        // in this case we use the transfer() instead of tranferFrom\n        tether.transfer(msg.sender, balance);\n    }\n}\n",
  "sourcePath": "/Users/ungalexy/code/valet/play-solidity/defi-staker/src/contracts/DeBank.sol",
  "compiler": {
    "name": "solc",
    "version": "0.5.17+commit.d19bba13.Emscripten.clang"
  },
  "schemaVersion": "3.4.6",
  "updatedAt": "2022-03-24T17:48:35.814Z",
  "devdoc": {
    "methods": {}
  },
  "userdoc": {
    "methods": {
      "depositTokens(uint256)": {
        "notice": "Staking function"
      },
      "issueTokens()": {
        "notice": "issue staking rewards"
      },
      "unstakeTokens()": {
        "notice": "unstake tokens"
      }
    },
    "notice": "DeBank contract"
  }
}